{"abi":[{"type":"function","name":"adapterId","inputs":[],"outputs":[{"name":"","type":"bytes32","internalType":"bytes32"}],"stateMutability":"pure"},{"type":"function","name":"adapterName","inputs":[],"outputs":[{"name":"","type":"string","internalType":"string"}],"stateMutability":"pure"},{"type":"function","name":"supportsConfidentialSettlement","inputs":[],"outputs":[{"name":"","type":"bool","internalType":"bool"}],"stateMutability":"pure"}],"bytecode":{"object":"0x608060405234801561001057600080fd5b50610264806100206000396000f3fe608060405234801561001057600080fd5b50600436106100415760003560e01c80633623e4a1146100465780635fb86b0114610064578063ba28657814610082575b600080fd5b61004e6100a0565b60405161005b919061010b565b60405180910390f35b61006c6100a5565b604051610079919061013f565b60405180910390f35b61008a6100d0565b60405161009791906101ea565b60405180910390f35b600090565b60007fe63d6b74acd7fc290ccc7023cf71c71605754109f267e16db6a1bd3a82ddd6b760001b905090565b606060405180606001604052806022815260200161020d60229139905090565b60008115159050919050565b610105816100f0565b82525050565b600060208201905061012060008301846100fc565b92915050565b6000819050919050565b61013981610126565b82525050565b60006020820190506101546000830184610130565b92915050565b600081519050919050565b600082825260208201905092915050565b60005b83811015610194578082015181840152602081019050610179565b60008484015250505050565b6000601f19601f8301169050919050565b60006101bc8261015a565b6101c68185610165565b93506101d6818560208601610176565b6101df816101a0565b840191505092915050565b6000602082019050818103600083015261020481846101b1565b90509291505056fe436970686572526f6c6c205761766520312054726561737572792041646170746572a2646970667358221220c1f63316214cb68dd8d727e536df94d1dd8b70a5247d4315b5b2878850277b8e64736f6c63430008130033","linkReferences":{}},"methodIdentifiers":{"adapterId()":"5fb86b01","adapterName()":"ba286578","supportsConfidentialSettlement()":"3623e4a1"},"id":2}