{
  "contracts/mocks/Wave1TreasuryAdapter.sol": {
    "Wave1TreasuryAdapter": {
      "abi": [
        {
          "inputs": [],
          "name": "adapterId",
          "outputs": [
            {
              "internalType": "bytes32",
              "name": "",
              "type": "bytes32"
            }
          ],
          "stateMutability": "pure",
          "type": "function"
        },
        {
          "inputs": [],
          "name": "adapterName",
          "outputs": [
            {
              "internalType": "string",
              "name": "",
              "type": "string"
            }
          ],
          "stateMutability": "pure",
          "type": "function"
        },
        {
          "inputs": [],
          "name": "supportsConfidentialSettlement",
          "outputs": [
            {
              "internalType": "bool",
              "name": "",
              "type": "bool"
            }
          ],
          "stateMutability": "pure",
          "type": "function"
        }
      ],
      "evm": {
        "bytecode": {
          "linkReferences": {},
          "object": "608060405234801561001057600080fd5b50610163806100206000396000f3fe608060405234801561001057600080fd5b50600436106100415760003560e01c80633623e4a1146100465780635fb86b011461005a578063ba28657814610088575b600080fd5b604051600081526020015b60405180910390f35b6040517fe63d6b74acd7fc290ccc7023cf71c71605754109f267e16db6a1bd3a82ddd6b78152602001610051565b61009061009d565b60405161005191906100bd565b606060405180606001604052806022815260200161010c60229139905090565b600060208083528351808285015260005b818110156100ea578581018301518582016040015282016100ce565b506000604082860101526040601f19601f830116850101925050509291505056fe436970686572526f6c6c205761766520312054726561737572792041646170746572a2646970667358221220015f4633e5819eda5004b3cdc9a36899d88db2756e563698592818c61883040c64736f6c63430008130033",
          "opcodes": "PUSH1 0x80 PUSH1 0x40 MSTORE CALLVALUE DUP1 ISZERO PUSH2 0x10 JUMPI PUSH1 0x0 DUP1 REVERT JUMPDEST POP PUSH2 0x163 DUP1 PUSH2 0x20 PUSH1 0x0 CODECOPY PUSH1 0x0 RETURN INVALID PUSH1 0x80 PUSH1 0x40 MSTORE CALLVALUE DUP1 ISZERO PUSH2 0x10 JUMPI PUSH1 0x0 DUP1 REVERT JUMPDEST POP PUSH1 0x4 CALLDATASIZE LT PUSH2 0x41 JUMPI PUSH1 0x0 CALLDATALOAD PUSH1 0xE0 SHR DUP1 PUSH4 0x3623E4A1 EQ PUSH2 0x46 JUMPI DUP1 PUSH4 0x5FB86B01 EQ PUSH2 0x5A JUMPI DUP1 PUSH4 0xBA286578 EQ PUSH2 0x88 JUMPI JUMPDEST PUSH1 0x0 DUP1 REVERT JUMPDEST PUSH1 0x40 MLOAD PUSH1 0x0 DUP2 MSTORE PUSH1 0x20 ADD JUMPDEST PUSH1 0x40 MLOAD DUP1 SWAP2 SUB SWAP1 RETURN JUMPDEST PUSH1 0x40 MLOAD PUSH32 0xE63D6B74ACD7FC290CCC7023CF71C71605754109F267E16DB6A1BD3A82DDD6B7 DUP2 MSTORE PUSH1 0x20 ADD PUSH2 0x51 JUMP JUMPDEST PUSH2 0x90 PUSH2 0x9D JUMP JUMPDEST PUSH1 0x40 MLOAD PUSH2 0x51 SWAP2 SWAP1 PUSH2 0xBD JUMP JUMPDEST PUSH1 0x60 PUSH1 0x40 MLOAD DUP1 PUSH1 0x60 ADD PUSH1 0x40 MSTORE DUP1 PUSH1 0x22 DUP2 MSTORE PUSH1 0x20 ADD PUSH2 0x10C PUSH1 0x22 SWAP2 CODECOPY SWAP1 POP SWAP1 JUMP JUMPDEST PUSH1 0x0 PUSH1 0x20 DUP1 DUP4 MSTORE DUP4 MLOAD DUP1 DUP3 DUP6 ADD MSTORE PUSH1 0x0 JUMPDEST DUP2 DUP2 LT ISZERO PUSH2 0xEA JUMPI DUP6 DUP2 ADD DUP4 ADD MLOAD DUP6 DUP3 ADD PUSH1 0x40 ADD MSTORE DUP3 ADD PUSH2 0xCE JUMP JUMPDEST POP PUSH1 0x0 PUSH1 0x40 DUP3 DUP7 ADD ADD MSTORE PUSH1 0x40 PUSH1 0x1F NOT PUSH1 0x1F DUP4 ADD AND DUP6 ADD ADD SWAP3 POP POP POP SWAP3 SWAP2 POP POP JUMP INVALID NUMBER PUSH10 0x70686572526F6C6C2057 PUSH2 0x7665 KECCAK256 BALANCE KECCAK256 SLOAD PUSH19 0x6561737572792041646170746572A264697066 PUSH20 0x58221220015F4633E5819EDA5004B3CDC9A36899 0xD8 DUP14 0xB2 PUSH22 0x6E563698592818C61883040C64736F6C634300081300 CALLER "
        },
        "methodIdentifiers": {
          "adapterId()": "5fb86b01",
          "adapterName()": "ba286578",
          "supportsConfidentialSettlement()": "3623e4a1"
        }
      }
    }
  }
}