{"abi":[{"type":"function","name":"claimPayroll","inputs":[{"name":"orgId","type":"bytes32","internalType":"bytes32"},{"name":"paymentId","type":"bytes32","internalType":"bytes32"}],"outputs":[],"stateMutability":"nonpayable"},{"type":"function","name":"configureTreasury","inputs":[{"name":"orgId","type":"bytes32","internalType":"bytes32"},{"name":"treasuryAdapter","type":"address","internalType":"address"},{"name":"treasuryRouteId","type":"bytes32","internalType":"bytes32"}],"outputs":[],"stateMutability":"nonpayable"},{"type":"function","name":"createOrganization","inputs":[{"name":"orgId","type":"bytes32","internalType":"bytes32"},{"name":"metadataHash","type":"bytes32","internalType":"bytes32"},{"name":"reservedAdminSlots","type":"uint64","internalType":"uint64"},{"name":"reservedQuorum","type":"uint64","internalType":"uint64"}],"outputs":[],"stateMutability":"nonpayable"},{"type":"function","name":"depositBudget","inputs":[{"name":"orgId","type":"bytes32","internalType":"bytes32"},{"name":"amount","type":"uint128","internalType":"uint128"}],"outputs":[],"stateMutability":"nonpayable"},{"type":"function","name":"getAdminSummaryHandles","inputs":[{"name":"orgId","type":"bytes32","internalType":"bytes32"}],"outputs":[{"name":"budget","type":"uint256","internalType":"euint128"},{"name":"committed","type":"uint256","internalType":"euint128"},{"name":"available","type":"uint256","internalType":"euint128"}],"stateMutability":"view"},{"type":"function","name":"getEmployeeHandles","inputs":[{"name":"orgId","type":"bytes32","internalType":"bytes32"},{"name":"employee","type":"address","internalType":"address"}],"outputs":[{"name":"paymentIds","type":"bytes32[]","internalType":"bytes32[]"},{"name":"memoHashes","type":"bytes32[]","internalType":"bytes32[]"},{"name":"createdAts","type":"uint64[]","internalType":"uint64[]"},{"name":"handles","type":"uint256[]","internalType":"euint128[]"}],"stateMutability":"view"},{"type":"function","name":"getOrganization","inputs":[{"name":"orgId","type":"bytes32","internalType":"bytes32"}],"outputs":[{"name":"","type":"tuple","internalType":"struct CipherRollPayroll.Organization","components":[{"name":"admin","type":"address","internalType":"address"},{"name":"treasuryAdapter","type":"address","internalType":"address"},{"name":"metadataHash","type":"bytes32","internalType":"bytes32"},{"name":"treasuryRouteId","type":"bytes32","internalType":"bytes32"},{"name":"reservedAdminSlots","type":"uint64","internalType":"uint64"},{"name":"reservedQuorum","type":"uint64","internalType":"uint64"},{"name":"createdAt","type":"uint64","internalType":"uint64"},{"name":"updatedAt","type":"uint64","internalType":"uint64"},{"name":"exists","type":"bool","internalType":"bool"}]}],"stateMutability":"view"},{"type":"function","name":"getPayrollAllocationMeta","inputs":[{"name":"paymentId","type":"bytes32","internalType":"bytes32"}],"outputs":[{"name":"","type":"tuple","internalType":"struct CipherRollPayroll.PayrollAllocationMeta","components":[{"name":"employee","type":"address","internalType":"address"},{"name":"paymentId","type":"bytes32","internalType":"bytes32"},{"name":"memoHash","type":"bytes32","internalType":"bytes32"},{"name":"createdAt","type":"uint64","internalType":"uint64"},{"name":"isVesting","type":"bool","internalType":"bool"},{"name":"vestingStart","type":"uint64","internalType":"uint64"},{"name":"vestingEnd","type":"uint64","internalType":"uint64"},{"name":"exists","type":"bool","internalType":"bool"}]}],"stateMutability":"view"},{"type":"function","name":"getTreasuryAdapterDetails","inputs":[{"name":"orgId","type":"bytes32","internalType":"bytes32"}],"outputs":[{"name":"adapter","type":"address","internalType":"address"},{"name":"routeId","type":"bytes32","internalType":"bytes32"},{"name":"adapterId","type":"bytes32","internalType":"bytes32"},{"name":"adapterName","type":"string","internalType":"string"},{"name":"supportsConfidentialSettlement","type":"bool","internalType":"bool"}],"stateMutability":"view"},{"type":"function","name":"issueConfidentialPayroll","inputs":[{"name":"orgId","type":"bytes32","internalType":"bytes32"},{"name":"employee","type":"address","internalType":"address"},{"name":"amount","type":"uint128","internalType":"uint128"},{"name":"paymentId","type":"bytes32","internalType":"bytes32"},{"name":"memoHash","type":"bytes32","internalType":"bytes32"}],"outputs":[],"stateMutability":"nonpayable"},{"type":"function","name":"issueVestingAllocation","inputs":[{"name":"orgId","type":"bytes32","internalType":"bytes32"},{"name":"employee","type":"address","internalType":"address"},{"name":"amount","type":"uint128","internalType":"uint128"},{"name":"paymentId","type":"bytes32","internalType":"bytes32"},{"name":"memoHash","type":"bytes32","internalType":"bytes32"},{"name":"startTimestamp","type":"uint64","internalType":"uint64"},{"name":"endTimestamp","type":"uint64","internalType":"uint64"}],"outputs":[],"stateMutability":"nonpayable"},{"type":"event","name":"BudgetDeposited","inputs":[{"name":"orgId","type":"bytes32","indexed":true,"internalType":"bytes32"},{"name":"admin","type":"address","indexed":true,"internalType":"address"},{"name":"amount","type":"uint128","indexed":false,"internalType":"uint128"}],"anonymous":false},{"type":"event","name":"ConfidentialPayrollIssued","inputs":[{"name":"orgId","type":"bytes32","indexed":true,"internalType":"bytes32"},{"name":"paymentId","type":"bytes32","indexed":true,"internalType":"bytes32"},{"name":"employee","type":"address","indexed":true,"internalType":"address"},{"name":"memoHash","type":"bytes32","indexed":false,"internalType":"bytes32"}],"anonymous":false},{"type":"event","name":"OrganizationCreated","inputs":[{"name":"orgId","type":"bytes32","indexed":true,"internalType":"bytes32"},{"name":"admin","type":"address","indexed":true,"internalType":"address"},{"name":"metadataHash","type":"bytes32","indexed":false,"internalType":"bytes32"},{"name":"reservedAdminSlots","type":"uint64","indexed":false,"internalType":"uint64"},{"name":"reservedQuorum","type":"uint64","indexed":false,"internalType":"uint64"}],"anonymous":false},{"type":"event","name":"PayrollClaimed","inputs":[{"name":"orgId","type":"bytes32","indexed":true,"internalType":"bytes32"},{"name":"paymentId","type":"bytes32","indexed":true,"internalType":"bytes32"},{"name":"employee","type":"address","indexed":true,"internalType":"address"}],"anonymous":false},{"type":"event","name":"TreasuryConfigured","inputs":[{"name":"orgId","type":"bytes32","indexed":true,"internalType":"bytes32"},{"name":"admin","type":"address","indexed":true,"internalType":"address"},{"name":"treasuryAdapter","type":"address","indexed":false,"internalType":"address"},{"name":"treasuryRouteId","type":"bytes32","indexed":false,"internalType":"bytes32"}],"anonymous":false}],"bytecode":{"object":"0x608060405234801561001057600080fd5b50613d6f806100206000396000f3fe608060405234801561001057600080fd5b50600436106100a95760003560e01c80638ae091d8116100715780638ae091d81461014e57806397fe3eb51461016a578063e24d98f814610186578063e3e24066146101ba578063e5193398146101ec578063fef21f131461021c576100a9565b80630e7ad400146100ae57806322b3cd4e146100ca57806327f9d9ed146100fa5780633bd71c9a146101165780634371659114610132575b600080fd5b6100c860048036038101906100c3919061295a565b61024f565b005b6100e460048036038101906100df91906129c1565b610697565b6040516100f19190612b1f565b60405180910390f35b610114600480360381019061010f9190612baf565b610867565b005b610130600480360381019061012b9190612c2a565b610e1a565b005b61014c60048036038101906101479190612ccc565b611423565b005b61016860048036038101906101639190612d0c565b6116a1565b005b610184600480360381019061017f9190612d5f565b611917565b005b6101a0600480360381019061019b91906129c1565b611b38565b6040516101b1959493929190612e5c565b60405180910390f35b6101d460048036038101906101cf91906129c1565b611ed3565b6040516101e393929190612efb565b60405180910390f35b610206600480360381019061020191906129c1565b612028565b6040516102139190612fd4565b60405180910390f35b61023660048036038101906102319190612ff0565b61218c565b604051610246949392919061324c565b60405180910390f35b60008085815260200190815260200160002060050160009054906101000a900460ff16156102b2576040517f08c379a00000000000000000000000000000000000000000000000000000000081526004016102a9906132f9565b60405180910390fd5b60008267ffffffffffffffff16116102ff576040517f08c379a00000000000000000000000000000000000000000000000000000000081526004016102f690613365565b60405180910390fd5b60008167ffffffffffffffff161161034c576040517f08c379a0000000000000000000000000000000000000000000000000000000008152600401610343906133d1565b60405180910390fd5b8167ffffffffffffffff168167ffffffffffffffff1611156103a3576040517f08c379a000000000000000000000000000000000000000000000000000000000815260040161039a9061343d565b60405180910390fd5b6040518061012001604052803373ffffffffffffffffffffffffffffffffffffffff168152602001600073ffffffffffffffffffffffffffffffffffffffff1681526020018481526020016000801b81526020018367ffffffffffffffff1681526020018267ffffffffffffffff1681526020014267ffffffffffffffff1681526020014267ffffffffffffffff1681526020016001151581525060008086815260200190815260200160002060008201518160000160006101000a81548173ffffffffffffffffffffffffffffffffffffffff021916908373ffffffffffffffffffffffffffffffffffffffff16021790555060208201518160010160006101000a81548173ffffffffffffffffffffffffffffffffffffffff021916908373ffffffffffffffffffffffffffffffffffffffff160217905550604082015181600201556060820151816003015560808201518160040160006101000a81548167ffffffffffffffff021916908367ffffffffffffffff16021790555060a08201518160040160086101000a81548167ffffffffffffffff021916908367ffffffffffffffff16021790555060c08201518160040160106101000a81548167ffffffffffffffff021916908367ffffffffffffffff16021790555060e08201518160040160186101000a81548167ffffffffffffffff021916908367ffffffffffffffff1602179055506101008201518160050160006101000a81548160ff0219169083151502179055509050506105dc60006125e5565b60016000868152602001908152602001600020819055506105fd60006125e5565b600260008681526020019081526020016000208190555061061e60006125e5565b600360008681526020019081526020016000208190555061063e84612601565b3373ffffffffffffffffffffffffffffffffffffffff16847ffdf474d5bdba523342303537e62016e11380c0223544a5fc9775ac7fa84245bb8585856040516106899392919061346c565b60405180910390a350505050565b61069f6127a5565b600080838152602001908152602001600020604051806101200160405290816000820160009054906101000a900473ffffffffffffffffffffffffffffffffffffffff1673ffffffffffffffffffffffffffffffffffffffff1673ffffffffffffffffffffffffffffffffffffffff1681526020016001820160009054906101000a900473ffffffffffffffffffffffffffffffffffffffff1673ffffffffffffffffffffffffffffffffffffffff1673ffffffffffffffffffffffffffffffffffffffff16815260200160028201548152602001600382015481526020016004820160009054906101000a900467ffffffffffffffff1667ffffffffffffffff1667ffffffffffffffff1681526020016004820160089054906101000a900467ffffffffffffffff1667ffffffffffffffff1667ffffffffffffffff1681526020016004820160109054906101000a900467ffffffffffffffff1667ffffffffffffffff1667ffffffffffffffff1681526020016004820160189054906101000a900467ffffffffffffffff1667ffffffffffffffff1667ffffffffffffffff1681526020016005820160009054906101000a900460ff1615151515815250509050919050565b8460008082815260200190815260200160002060050160009054906101000a900460ff166108ca576040517f08c379a00000000000000000000000000000000000000000000000000000000081526004016108c1906134ef565b60405180910390fd5b3373ffffffffffffffffffffffffffffffffffffffff1660008083815260200190815260200160002060000160009054906101000a900473ffffffffffffffffffffffffffffffffffffffff1673ffffffffffffffffffffffffffffffffffffffff161461096d576040517f08c379a00000000000000000000000000000000000000000000000000000000081526004016109649061355b565b60405180910390fd5b600073ffffffffffffffffffffffffffffffffffffffff168573ffffffffffffffffffffffffffffffffffffffff16036109dc576040517f08c379a00000000000000000000000000000000000000000000000000000000081526004016109d3906135c7565b60405180910390fd5b6004600084815260200190815260200160002060030160199054906101000a900460ff1615610a40576040517f08c379a0000000000000000000000000000000000000000000000000000000008152600401610a3790613633565b60405180910390fd5b6000610a4b856125e5565b90506000600360008981526020019081526020016000205490506000610a7182846126ea565b90506000610a898285610a8460006125e5565b612709565b9050610aa8600260008c81526020019081526020016000205482612724565b600260008c815260200190815260200160002081905550610ac9838261273a565b600360008c8152602001908152602001600020819055506040518061010001604052808a73ffffffffffffffffffffffffffffffffffffffff1681526020018881526020018781526020014267ffffffffffffffff168152602001600015158152602001600067ffffffffffffffff168152602001600067ffffffffffffffff168152602001600115158152506004600089815260200190815260200160002060008201518160000160006101000a81548173ffffffffffffffffffffffffffffffffffffffff021916908373ffffffffffffffffffffffffffffffffffffffff160217905550602082015181600101556040820151816002015560608201518160030160006101000a81548167ffffffffffffffff021916908367ffffffffffffffff16021790555060808201518160030160086101000a81548160ff02191690831515021790555060a08201518160030160096101000a81548167ffffffffffffffff021916908367ffffffffffffffff16021790555060c08201518160030160116101000a81548167ffffffffffffffff021916908367ffffffffffffffff16021790555060e08201518160030160196101000a81548160ff021916908315150217905550905050806005600089815260200190815260200160002081905550600760008b815260200190815260200160002060008a73ffffffffffffffffffffffffffffffffffffffff1673ffffffffffffffffffffffffffffffffffffffff168152602001908152602001600020879080600181540180825580915050600190039060005260206000200160009091909190915055426000808c815260200190815260200160002060040160186101000a81548167ffffffffffffffff021916908367ffffffffffffffff160217905550610d688a612601565b610d84600560008981526020019081526020016000205461279e565b610da160056000898152602001908152602001600020548a6127a1565b610dbe6005600089815260200190815260200160002054336127a1565b8873ffffffffffffffffffffffffffffffffffffffff16878b7fc8b4cca47067e25c81e7f06a613852e0aee3c320266b5483f0e113af62a293c089604051610e069190613653565b60405180910390a450505050505050505050565b8660008082815260200190815260200160002060050160009054906101000a900460ff16610e7d576040517f08c379a0000000000000000000000000000000000000000000000000000000008152600401610e74906134ef565b60405180910390fd5b3373ffffffffffffffffffffffffffffffffffffffff1660008083815260200190815260200160002060000160009054906101000a900473ffffffffffffffffffffffffffffffffffffffff1673ffffffffffffffffffffffffffffffffffffffff1614610f20576040517f08c379a0000000000000000000000000000000000000000000000000000000008152600401610f179061355b565b60405180910390fd5b600073ffffffffffffffffffffffffffffffffffffffff168773ffffffffffffffffffffffffffffffffffffffff1603610f8f576040517f08c379a0000000000000000000000000000000000000000000000000000000008152600401610f86906135c7565b60405180910390fd5b6004600086815260200190815260200160002060030160199054906101000a900460ff1615610ff3576040517f08c379a0000000000000000000000000000000000000000000000000000000008152600401610fea90613633565b60405180910390fd5b8267ffffffffffffffff168267ffffffffffffffff1611611049576040517f08c379a0000000000000000000000000000000000000000000000000000000008152600401611040906136ba565b60405180910390fd5b6000611054876125e5565b90506000600360008b8152602001908152602001600020549050600061107a82846126ea565b90506000611092828561108d60006125e5565b612709565b90506110b1600260008e81526020019081526020016000205482612724565b600260008e8152602001908152602001600020819055506110d2838261273a565b600360008e8152602001908152602001600020819055506040518061010001604052808c73ffffffffffffffffffffffffffffffffffffffff1681526020018a81526020018981526020014267ffffffffffffffff1681526020016001151581526020018867ffffffffffffffff1681526020018767ffffffffffffffff16815260200160011515815250600460008b815260200190815260200160002060008201518160000160006101000a81548173ffffffffffffffffffffffffffffffffffffffff021916908373ffffffffffffffffffffffffffffffffffffffff160217905550602082015181600101556040820151816002015560608201518160030160006101000a81548167ffffffffffffffff021916908367ffffffffffffffff16021790555060808201518160030160086101000a81548160ff02191690831515021790555060a08201518160030160096101000a81548167ffffffffffffffff021916908367ffffffffffffffff16021790555060c08201518160030160116101000a81548167ffffffffffffffff021916908367ffffffffffffffff16021790555060e08201518160030160196101000a81548160ff02191690831515021790555090505080600560008b815260200190815260200160002081905550600760008d815260200190815260200160002060008c73ffffffffffffffffffffffffffffffffffffffff1673ffffffffffffffffffffffffffffffffffffffff168152602001908152602001600020899080600181540180825580915050600190039060005260206000200160009091909190915055426000808e815260200190815260200160002060040160186101000a81548167ffffffffffffffff021916908367ffffffffffffffff16021790555061136f8c612601565b61138b600560008b81526020019081526020016000205461279e565b6113a8600560008b8152602001908152602001600020548c6127a1565b6113c5600560008b815260200190815260200160002054336127a1565b8a73ffffffffffffffffffffffffffffffffffffffff16898d7fc8b4cca47067e25c81e7f06a613852e0aee3c320266b5483f0e113af62a293c08b60405161140d9190613653565b60405180910390a4505050505050505050505050565b6004600082815260200190815260200160002060030160199054906101000a900460ff16611486576040517f08c379a000000000000000000000000000000000000000000000000000000000815260040161147d90613726565b60405180910390fd5b3373ffffffffffffffffffffffffffffffffffffffff166004600083815260200190815260200160002060000160009054906101000a900473ffffffffffffffffffffffffffffffffffffffff1673ffffffffffffffffffffffffffffffffffffffff161461152a576040517f08c379a000000000000000000000000000000000000000000000000000000000815260040161152190613792565b60405180910390fd5b6006600082815260200190815260200160002060009054906101000a900460ff161561158b576040517f08c379a0000000000000000000000000000000000000000000000000000000008152600401611582906137fe565b60405180910390fd5b6004600082815260200190815260200160002060030160089054906101000a900460ff161561162c576004600082815260200190815260200160002060030160119054906101000a900467ffffffffffffffff1667ffffffffffffffff1642101561162b576040517f08c379a00000000000000000000000000000000000000000000000000000000081526004016116229061386a565b60405180910390fd5b5b60016006600083815260200190815260200160002060006101000a81548160ff0219169083151502179055503373ffffffffffffffffffffffffffffffffffffffff1681837f064f2f69dfbf0d13b7b03e6872d056e2e9d3ea7110d882aeb93408b21479da7c60405160405180910390a45050565b8260008082815260200190815260200160002060050160009054906101000a900460ff16611704576040517f08c379a00000000000000000000000000000000000000000000000000000000081526004016116fb906134ef565b60405180910390fd5b3373ffffffffffffffffffffffffffffffffffffffff1660008083815260200190815260200160002060000160009054906101000a900473ffffffffffffffffffffffffffffffffffffffff1673ffffffffffffffffffffffffffffffffffffffff16146117a7576040517f08c379a000000000000000000000000000000000000000000000000000000000815260040161179e9061355b565b60405180910390fd5b600073ffffffffffffffffffffffffffffffffffffffff168373ffffffffffffffffffffffffffffffffffffffff1603611816576040517f08c379a000000000000000000000000000000000000000000000000000000000815260040161180d906138d6565b60405180910390fd5b8260008086815260200190815260200160002060010160006101000a81548173ffffffffffffffffffffffffffffffffffffffff021916908373ffffffffffffffffffffffffffffffffffffffff16021790555081600080868152602001908152602001600020600301819055504260008086815260200190815260200160002060040160186101000a81548167ffffffffffffffff021916908367ffffffffffffffff1602179055503373ffffffffffffffffffffffffffffffffffffffff16847f4c82551f4ba6e19374ffc76f87cf4af2a661be91893451e762d3adbb4a415a8b85856040516119099291906138f6565b60405180910390a350505050565b8160008082815260200190815260200160002060050160009054906101000a900460ff1661197a576040517f08c379a0000000000000000000000000000000000000000000000000000000008152600401611971906134ef565b60405180910390fd5b3373ffffffffffffffffffffffffffffffffffffffff1660008083815260200190815260200160002060000160009054906101000a900473ffffffffffffffffffffffffffffffffffffffff1673ffffffffffffffffffffffffffffffffffffffff1614611a1d576040517f08c379a0000000000000000000000000000000000000000000000000000000008152600401611a149061355b565b60405180910390fd5b6000611a28836125e5565b90506000611a49600160008781526020019081526020016000205483612724565b90506000611a6a600360008881526020019081526020016000205484612724565b90508160016000888152602001908152602001600020819055508060036000888152602001908152602001600020819055504260008088815260200190815260200160002060040160186101000a81548167ffffffffffffffff021916908367ffffffffffffffff160217905550611ae186612601565b3373ffffffffffffffffffffffffffffffffffffffff16867ff883832f91ccf271c041c95fc2f1f3c49c5baf8b0c749cb41ef627011ca4743987604051611b28919061392e565b60405180910390a3505050505050565b60008060006060600080600080888152602001908152602001600020604051806101200160405290816000820160009054906101000a900473ffffffffffffffffffffffffffffffffffffffff1673ffffffffffffffffffffffffffffffffffffffff1673ffffffffffffffffffffffffffffffffffffffff1681526020016001820160009054906101000a900473ffffffffffffffffffffffffffffffffffffffff1673ffffffffffffffffffffffffffffffffffffffff1673ffffffffffffffffffffffffffffffffffffffff16815260200160028201548152602001600382015481526020016004820160009054906101000a900467ffffffffffffffff1667ffffffffffffffff1667ffffffffffffffff1681526020016004820160089054906101000a900467ffffffffffffffff1667ffffffffffffffff1667ffffffffffffffff1681526020016004820160109054906101000a900467ffffffffffffffff1667ffffffffffffffff1667ffffffffffffffff1681526020016004820160189054906101000a900467ffffffffffffffff1667ffffffffffffffff1667ffffffffffffffff1681526020016005820160009054906101000a900460ff16151515158152505090508060200151955080606001519450600073ffffffffffffffffffffffffffffffffffffffff168673ffffffffffffffffffffffffffffffffffffffff1603611d705785856000801b600060405180602001604052806000815250909550955095509550955050611eca565b8573ffffffffffffffffffffffffffffffffffffffff16635fb86b016040518163ffffffff1660e01b8152600401602060405180830381865afa158015611dbb573d6000803e3d6000fd5b505050506040513d601f19601f82011682018060405250810190611ddf919061395e565b93508573ffffffffffffffffffffffffffffffffffffffff1663ba2865786040518163ffffffff1660e01b8152600401600060405180830381865afa158015611e2c573d6000803e3d6000fd5b505050506040513d6000823e3d601f19601f82011682018060405250810190611e559190613ab1565b92508573ffffffffffffffffffffffffffffffffffffffff16633623e4a16040518163ffffffff1660e01b8152600401602060405180830381865afa158015611ea2573d6000803e3d6000fd5b505050506040513d601f19601f82011682018060405250810190611ec69190613b26565b9150505b91939590929450565b60008060008360008082815260200190815260200160002060050160009054906101000a900460ff16611f3b576040517f08c379a0000000000000000000000000000000000000000000000000000000008152600401611f32906134ef565b60405180910390fd5b3373ffffffffffffffffffffffffffffffffffffffff1660008083815260200190815260200160002060000160009054906101000a900473ffffffffffffffffffffffffffffffffffffffff1673ffffffffffffffffffffffffffffffffffffffff1614611fde576040517f08c379a0000000000000000000000000000000000000000000000000000000008152600401611fd59061355b565b60405180910390fd5b600160008681526020019081526020016000205460026000878152602001908152602001600020546003600088815260200190815260200160002054935093509350509193909250565b61203061284d565b60046000838152602001908152602001600020604051806101000160405290816000820160009054906101000a900473ffffffffffffffffffffffffffffffffffffffff1673ffffffffffffffffffffffffffffffffffffffff1673ffffffffffffffffffffffffffffffffffffffff16815260200160018201548152602001600282015481526020016003820160009054906101000a900467ffffffffffffffff1667ffffffffffffffff1667ffffffffffffffff1681526020016003820160089054906101000a900460ff161515151581526020016003820160099054906101000a900467ffffffffffffffff1667ffffffffffffffff1667ffffffffffffffff1681526020016003820160119054906101000a900467ffffffffffffffff1667ffffffffffffffff1667ffffffffffffffff1681526020016003820160199054906101000a900460ff1615151515815250509050919050565b6060806060808473ffffffffffffffffffffffffffffffffffffffff163373ffffffffffffffffffffffffffffffffffffffff1614612200576040517f08c379a00000000000000000000000000000000000000000000000000000000081526004016121f790613b9f565b60405180910390fd5b60006007600088815260200190815260200160002060008773ffffffffffffffffffffffffffffffffffffffff1673ffffffffffffffffffffffffffffffffffffffff16815260200190815260200160002080548060200260200160405190810160405280929190818152602001828054801561229c57602002820191906000526020600020905b815481526020019060010190808311612288575b505050505090506000815167ffffffffffffffff8111156122c0576122bf613995565b5b6040519080825280602002602001820160405280156122ee5781602001602082028036833780820191505090505b5090506000825167ffffffffffffffff81111561230e5761230d613995565b5b60405190808252806020026020018201604052801561233c5781602001602082028036833780820191505090505b5090506000835167ffffffffffffffff81111561235c5761235b613995565b5b60405190808252806020026020018201604052801561238a5781602001602082028036833780820191505090505b50905060005b84518110156125cb576000600460008784815181106123b2576123b1613bbf565b5b60200260200101518152602001908152602001600020604051806101000160405290816000820160009054906101000a900473ffffffffffffffffffffffffffffffffffffffff1673ffffffffffffffffffffffffffffffffffffffff1673ffffffffffffffffffffffffffffffffffffffff16815260200160018201548152602001600282015481526020016003820160009054906101000a900467ffffffffffffffff1667ffffffffffffffff1667ffffffffffffffff1681526020016003820160089054906101000a900460ff161515151581526020016003820160099054906101000a900467ffffffffffffffff1667ffffffffffffffff1667ffffffffffffffff1681526020016003820160119054906101000a900467ffffffffffffffff1667ffffffffffffffff1667ffffffffffffffff1681526020016003820160199054906101000a900460ff1615151515815250509050806040015185838151811061252457612523613bbf565b5b602002602001018181525050806060015184838151811061254857612547613bbf565b5b602002602001019067ffffffffffffffff16908167ffffffffffffffff16815250506005600087848151811061258157612580613bbf565b5b60200260200101518152602001908152602001600020548383815181106125ab576125aa613bbf565b5b6020026020010181815250505080806125c390613c1d565b915050612390565b508383838397509750975097505050505092959194509250565b6000816fffffffffffffffffffffffffffffffff169050919050565b600080600083815260200190815260200160002060000160009054906101000a900473ffffffffffffffffffffffffffffffffffffffff169050612657600160008481526020019081526020016000205461279e565b612673600260008481526020019081526020016000205461279e565b61268f600360008481526020019081526020016000205461279e565b6126ac6001600084815260200190815260200160002054826127a1565b6126c96002600084815260200190815260200160002054826127a1565b6126e66003600084815260200190815260200160002054826127a1565b5050565b6000818310156126fb5760006126fe565b60015b60ff16905092915050565b600060018414612719578161271b565b825b90509392505050565b600081836127329190613c65565b905092915050565b600080839050600083905080821015612788576040517f08c379a000000000000000000000000000000000000000000000000000000000815260040161277f90613ce5565b60405180910390fd5b80826127949190613d05565b9250505092915050565b50565b5050565b604051806101200160405280600073ffffffffffffffffffffffffffffffffffffffff168152602001600073ffffffffffffffffffffffffffffffffffffffff1681526020016000801916815260200160008019168152602001600067ffffffffffffffff168152602001600067ffffffffffffffff168152602001600067ffffffffffffffff168152602001600067ffffffffffffffff1681526020016000151581525090565b604051806101000160405280600073ffffffffffffffffffffffffffffffffffffffff1681526020016000801916815260200160008019168152602001600067ffffffffffffffff168152602001600015158152602001600067ffffffffffffffff168152602001600067ffffffffffffffff1681526020016000151581525090565b6000604051905090565b600080fd5b600080fd5b6000819050919050565b6128f7816128e4565b811461290257600080fd5b50565b600081359050612914816128ee565b92915050565b600067ffffffffffffffff82169050919050565b6129378161291a565b811461294257600080fd5b50565b6000813590506129548161292e565b92915050565b60008060008060808587031215612974576129736128da565b5b600061298287828801612905565b945050602061299387828801612905565b93505060406129a487828801612945565b92505060606129b587828801612945565b91505092959194509250565b6000602082840312156129d7576129d66128da565b5b60006129e584828501612905565b91505092915050565b600073ffffffffffffffffffffffffffffffffffffffff82169050919050565b6000612a19826129ee565b9050919050565b612a2981612a0e565b82525050565b612a38816128e4565b82525050565b612a478161291a565b82525050565b60008115159050919050565b612a6281612a4d565b82525050565b61012082016000820151612a7f6000850182612a20565b506020820151612a926020850182612a20565b506040820151612aa56040850182612a2f565b506060820151612ab86060850182612a2f565b506080820151612acb6080850182612a3e565b5060a0820151612ade60a0850182612a3e565b5060c0820151612af160c0850182612a3e565b5060e0820151612b0460e0850182612a3e565b50610100820151612b19610100850182612a59565b50505050565b600061012082019050612b356000830184612a68565b92915050565b612b4481612a0e565b8114612b4f57600080fd5b50565b600081359050612b6181612b3b565b92915050565b60006fffffffffffffffffffffffffffffffff82169050919050565b612b8c81612b67565b8114612b9757600080fd5b50565b600081359050612ba981612b83565b92915050565b600080600080600060a08688031215612bcb57612bca6128da565b5b6000612bd988828901612905565b9550506020612bea88828901612b52565b9450506040612bfb88828901612b9a565b9350506060612c0c88828901612905565b9250506080612c1d88828901612905565b9150509295509295909350565b600080600080600080600060e0888a031215612c4957612c486128da565b5b6000612c578a828b01612905565b9750506020612c688a828b01612b52565b9650506040612c798a828b01612b9a565b9550506060612c8a8a828b01612905565b9450506080612c9b8a828b01612905565b93505060a0612cac8a828b01612945565b92505060c0612cbd8a828b01612945565b91505092959891949750929550565b60008060408385031215612ce357612ce26128da565b5b6000612cf185828601612905565b9250506020612d0285828601612905565b9150509250929050565b600080600060608486031215612d2557612d246128da565b5b6000612d3386828701612905565b9350506020612d4486828701612b52565b9250506040612d5586828701612905565b9150509250925092565b60008060408385031215612d7657612d756128da565b5b6000612d8485828601612905565b9250506020612d9585828601612b9a565b9150509250929050565b612da881612a0e565b82525050565b612db7816128e4565b82525050565b600081519050919050565b600082825260208201905092915050565b60005b83811015612df7578082015181840152602081019050612ddc565b60008484015250505050565b6000601f19601f8301169050919050565b6000612e1f82612dbd565b612e298185612dc8565b9350612e39818560208601612dd9565b612e4281612e03565b840191505092915050565b612e5681612a4d565b82525050565b600060a082019050612e716000830188612d9f565b612e7e6020830187612dae565b612e8b6040830186612dae565b8181036060830152612e9d8185612e14565b9050612eac6080830184612e4d565b9695505050505050565b6000819050919050565b6000819050919050565b6000612ee5612ee0612edb84612eb6565b612ec0565b612eb6565b9050919050565b612ef581612eca565b82525050565b6000606082019050612f106000830186612eec565b612f1d6020830185612eec565b612f2a6040830184612eec565b949350505050565b61010082016000820151612f496000850182612a20565b506020820151612f5c6020850182612a2f565b506040820151612f6f6040850182612a2f565b506060820151612f826060850182612a3e565b506080820151612f956080850182612a59565b5060a0820151612fa860a0850182612a3e565b5060c0820151612fbb60c0850182612a3e565b5060e0820151612fce60e0850182612a59565b50505050565b600061010082019050612fea6000830184612f32565b92915050565b60008060408385031215613007576130066128da565b5b600061301585828601612905565b925050602061302685828601612b52565b9150509250929050565b600081519050919050565b600082825260208201905092915050565b6000819050602082019050919050565b60006130688383612a2f565b60208301905092915050565b6000602082019050919050565b600061308c82613030565b613096818561303b565b93506130a18361304c565b8060005b838110156130d25781516130b9888261305c565b97506130c483613074565b9250506001810190506130a5565b5085935050505092915050565b600081519050919050565b600082825260208201905092915050565b6000819050602082019050919050565b60006131178383612a3e565b60208301905092915050565b6000602082019050919050565b600061313b826130df565b61314581856130ea565b9350613150836130fb565b8060005b83811015613181578151613168888261310b565b975061317383613123565b925050600181019050613154565b5085935050505092915050565b600081519050919050565b600082825260208201905092915050565b6000819050602082019050919050565b6131c381612eca565b82525050565b60006131d583836131ba565b60208301905092915050565b6000602082019050919050565b60006131f98261318e565b6132038185613199565b935061320e836131aa565b8060005b8381101561323f57815161322688826131c9565b9750613231836131e1565b925050600181019050613212565b5085935050505092915050565b600060808201905081810360008301526132668187613081565b9050818103602083015261327a8186613081565b9050818103604083015261328e8185613130565b905081810360608301526132a281846131ee565b905095945050505050565b7f436970686572526f6c6c3a206f72672065786973747300000000000000000000600082015250565b60006132e3601683612dc8565b91506132ee826132ad565b602082019050919050565b60006020820190508181036000830152613312816132d6565b9050919050565b7f436970686572526f6c6c3a2061646d696e20736c6f7473207265717569726564600082015250565b600061334f602083612dc8565b915061335a82613319565b602082019050919050565b6000602082019050818103600083015261337e81613342565b9050919050565b7f436970686572526f6c6c3a2071756f72756d2072657175697265640000000000600082015250565b60006133bb601b83612dc8565b91506133c682613385565b602082019050919050565b600060208201905081810360008301526133ea816133ae565b9050919050565b7f436970686572526f6c6c3a20696e76616c69642071756f72756d000000000000600082015250565b6000613427601a83612dc8565b9150613432826133f1565b602082019050919050565b600060208201905081810360008301526134568161341a565b9050919050565b6134668161291a565b82525050565b60006060820190506134816000830186612dae565b61348e602083018561345d565b61349b604083018461345d565b949350505050565b7f436970686572526f6c6c3a20756e6b6e6f776e206f7267000000000000000000600082015250565b60006134d9601783612dc8565b91506134e4826134a3565b602082019050919050565b60006020820190508181036000830152613508816134cc565b9050919050565b7f436970686572526f6c6c3a206e6f742061646d696e0000000000000000000000600082015250565b6000613545601583612dc8565b91506135508261350f565b602082019050919050565b6000602082019050818103600083015261357481613538565b9050919050565b7f436970686572526f6c6c3a20656d706c6f796565207265717569726564000000600082015250565b60006135b1601d83612dc8565b91506135bc8261357b565b602082019050919050565b600060208201905081810360008301526135e0816135a4565b9050919050565b7f436970686572526f6c6c3a207061796d656e7420657869737473000000000000600082015250565b600061361d601a83612dc8565b9150613628826135e7565b602082019050919050565b6000602082019050818103600083015261364c81613610565b9050919050565b60006020820190506136686000830184612dae565b92915050565b7f436970686572526f6c6c3a20696e76616c69642076657374696e670000000000600082015250565b60006136a4601b83612dc8565b91506136af8261366e565b602082019050919050565b600060208201905081810360008301526136d381613697565b9050919050565b7f436970686572526f6c6c3a207061796d656e74206d697373696e670000000000600082015250565b6000613710601b83612dc8565b915061371b826136da565b602082019050919050565b6000602082019050818103600083015261373f81613703565b9050919050565b7f436970686572526f6c6c3a206e6f7420656d706c6f7965650000000000000000600082015250565b600061377c601883612dc8565b915061378782613746565b602082019050919050565b600060208201905081810360008301526137ab8161376f565b9050919050565b7f436970686572526f6c6c3a20616c726561647920636c61696d65640000000000600082015250565b60006137e8601b83612dc8565b91506137f3826137b2565b602082019050919050565b60006020820190508181036000830152613817816137db565b9050919050565b7f436970686572526f6c6c3a2076657374696e6720616374697665000000000000600082015250565b6000613854601a83612dc8565b915061385f8261381e565b602082019050919050565b6000602082019050818103600083015261388381613847565b9050919050565b7f436970686572526f6c6c3a206164617074657220726571756972656400000000600082015250565b60006138c0601c83612dc8565b91506138cb8261388a565b602082019050919050565b600060208201905081810360008301526138ef816138b3565b9050919050565b600060408201905061390b6000830185612d9f565b6139186020830184612dae565b9392505050565b61392881612b67565b82525050565b6000602082019050613943600083018461391f565b92915050565b600081519050613958816128ee565b92915050565b600060208284031215613974576139736128da565b5b600061398284828501613949565b91505092915050565b600080fd5b600080fd5b7f4e487b7100000000000000000000000000000000000000000000000000000000600052604160045260246000fd5b6139cd82612e03565b810181811067ffffffffffffffff821117156139ec576139eb613995565b5b80604052505050565b60006139ff6128d0565b9050613a0b82826139c4565b919050565b600067ffffffffffffffff821115613a2b57613a2a613995565b5b613a3482612e03565b9050602081019050919050565b6000613a54613a4f84613a10565b6139f5565b905082815260208101848484011115613a7057613a6f613990565b5b613a7b848285612dd9565b509392505050565b600082601f830112613a9857613a9761398b565b5b8151613aa8848260208601613a41565b91505092915050565b600060208284031215613ac757613ac66128da565b5b600082015167ffffffffffffffff811115613ae557613ae46128df565b5b613af184828501613a83565b91505092915050565b613b0381612a4d565b8114613b0e57600080fd5b50565b600081519050613b2081613afa565b92915050565b600060208284031215613b3c57613b3b6128da565b5b6000613b4a84828501613b11565b91505092915050565b7f436970686572526f6c6c3a20656d706c6f796565206f6e6c7900000000000000600082015250565b6000613b89601983612dc8565b9150613b9482613b53565b602082019050919050565b60006020820190508181036000830152613bb881613b7c565b9050919050565b7f4e487b7100000000000000000000000000000000000000000000000000000000600052603260045260246000fd5b7f4e487b7100000000000000000000000000000000000000000000000000000000600052601160045260246000fd5b6000613c2882612eb6565b91507fffffffffffffffffffffffffffffffffffffffffffffffffffffffffffffffff8203613c5a57613c59613bee565b5b600182019050919050565b6000613c7082612eb6565b9150613c7b83612eb6565b9250828201905080821115613c9357613c92613bee565b5b92915050565b7f464845207368696d3a20756e646572666c6f7700000000000000000000000000600082015250565b6000613ccf601383612dc8565b9150613cda82613c99565b602082019050919050565b60006020820190508181036000830152613cfe81613cc2565b9050919050565b6000613d1082612eb6565b9150613d1b83612eb6565b9250828203905081811115613d3357613d32613bee565b5b9291505056fea2646970667358221220fd427fa7710741da47e0341b952bba74f54a291d77ba4c4a4276327a5ef963e664736f6c63430008130033","linkReferences":{}},"methodIdentifiers":{"claimPayroll(bytes32,bytes32)":"43716591","configureTreasury(bytes32,address,bytes32)":"8ae091d8","createOrganization(bytes32,bytes32,uint64,uint64)":"0e7ad400","depositBudget(bytes32,uint128)":"97fe3eb5","getAdminSummaryHandles(bytes32)":"e3e24066","getEmployeeHandles(bytes32,address)":"fef21f13","getOrganization(bytes32)":"22b3cd4e","getPayrollAllocationMeta(bytes32)":"e5193398","getTreasuryAdapterDetails(bytes32)":"e24d98f8","issueConfidentialPayroll(bytes32,address,uint128,bytes32,bytes32)":"27f9d9ed","issueVestingAllocation(bytes32,address,uint128,bytes32,bytes32,uint64,uint64)":"3bd71c9a"},"id":0}